{
  "contractName": "Sairam",
  "abi": [
    {
      "anonymous": false,
      "inputs": [
        {
          "indexed": false,
          "internalType": "string",
          "name": "msg",
          "type": "string"
        }
      ],
      "name": "Created",
      "type": "event"
    },
    {
      "inputs": [
        {
          "internalType": "uint256",
          "name": "_id",
          "type": "uint256"
        },
        {
          "internalType": "string",
          "name": "_modid",
          "type": "string"
        },
        {
          "internalType": "string",
          "name": "_userid",
          "type": "string"
        },
        {
          "internalType": "string",
          "name": "_sign",
          "type": "string"
        },
        {
          "internalType": "string",
          "name": "_proof",
          "type": "string"
        }
      ],
      "name": "newUser",
      "outputs": [],
      "stateMutability": "nonpayable",
      "type": "function"
    },
    {
      "inputs": [],
      "name": "saySairam",
      "outputs": [
        {
          "internalType": "string",
          "name": "",
          "type": "string"
        }
      ],
      "stateMutability": "pure",
      "type": "function",
      "constant": true
    },
    {
      "inputs": [
        {
          "internalType": "uint256",
          "name": "_id",
          "type": "uint256"
        },
        {
          "internalType": "uint256",
          "name": "_index",
          "type": "uint256"
        },
        {
          "internalType": "string",
          "name": "_newData",
          "type": "string"
        }
      ],
      "name": "setData",
      "outputs": [],
      "stateMutability": "nonpayable",
      "type": "function"
    },
    {
      "inputs": [
        {
          "internalType": "uint256",
          "name": "_id",
          "type": "uint256"
        },
        {
          "internalType": "uint256",
          "name": "_dataIndex",
          "type": "uint256"
        }
      ],
      "name": "getUserData",
      "outputs": [
        {
          "internalType": "string",
          "name": "",
          "type": "string"
        }
      ],
      "stateMutability": "view",
      "type": "function",
      "constant": true
    },
    {
      "inputs": [
        {
          "internalType": "uint256",
          "name": "_id",
          "type": "uint256"
        }
      ],
      "name": "getDataSize",
      "outputs": [
        {
          "internalType": "uint256",
          "name": "",
          "type": "uint256"
        }
      ],
      "stateMutability": "view",
      "type": "function",
      "constant": true
    },
    {
      "inputs": [],
      "name": "getMessage",
      "outputs": [
        {
          "internalType": "string",
          "name": "",
          "type": "string"
        }
      ],
      "stateMutability": "view",
      "type": "function",
      "constant": true
    }
  ],
  "bytecode": "0x60806040526040518060400160405280600581526020017f5377616d690000000000000000000000000000000000000000000000000000008152506001908051906020019061004f929190610062565b5034801561005c57600080fd5b50610166565b82805461006e90610134565b90600052602060002090601f01602090048101928261009057600085556100d7565b82601f106100a957805160ff19168380011785556100d7565b828001600101855582156100d7579182015b828111156100d65782518255916020019190600101906100bb565b5b5090506100e491906100e8565b5090565b5b808211156101015760008160009055506001016100e9565b5090565b7f4e487b7100000000000000000000000000000000000000000000000000000000600052602260045260246000fd5b6000600282049050600182168061014c57607f821691505b602082108114156101605761015f610105565b5b50919050565b610bcd80620001766000396000f3fe608060405234801561001057600080fd5b50600436106100625760003560e01c8063912e17f614610067578063ab32b43514610097578063ce6d41de146100b3578063ddd29e8e146100d1578063f3751313146100ef578063f80756331461011f575b600080fd5b610081600480360381019061007c9190610667565b61013b565b60405161008e91906106a3565b60405180910390f35b6100b160048036038101906100ac9190610804565b61015d565b005b6100bb61039c565b6040516100c89190610977565b60405180910390f35b6100d961042e565b6040516100e69190610977565b60405180910390f35b61010960048036038101906101049190610999565b61046b565b6040516101169190610977565b60405180910390f35b610139600480360381019061013491906109d9565b61052f565b005b6000806000838152602001908152602001600020600101805490509050919050565b6040518060400160405280600781526020017f4e6f74446f6e6500000000000000000000000000000000000000000000000000815250600190805190602001906101a892919061057a565b50806040516020016101ba9190610a84565b60405160208183030381529060405280519060200120826040516020016101e19190610a84565b604051602081830303815290604052805190602001201415610395576000151560008087815260200190815260200160002060020160009054906101000a900460ff1615151415610394578460008087815260200190815260200160002060000181905550600160008087815260200190815260200160002060020160006101000a81548160ff021916908315150217905550600080868152602001908152602001600020600101849080600181540180825580915050600190039060005260206000200160009091909190915090805190602001906102c292919061057a565b506000808681526020019081526020016000206001018390806001815401808255809150506001900390600052602060002001600090919091909150908051906020019061031192919061057a565b506040518060400160405280600481526020017f446f6e65000000000000000000000000000000000000000000000000000000008152506001908051906020019061035d92919061057a565b507fd5e88afa96fde7cd6564f009407c1306d04bb732c1c70625e2075120ffcf497a60405161038b90610ae7565b60405180910390a15b5b5050505050565b6060600180546103ab90610b36565b80601f01602080910402602001604051908101604052809291908181526020018280546103d790610b36565b80156104245780601f106103f957610100808354040283529160200191610424565b820191906000526020600020905b81548152906001019060200180831161040757829003601f168201915b5050505050905090565b60606040518060400160405280600681526020017f53616972616d0000000000000000000000000000000000000000000000000000815250905090565b6060600080848152602001908152602001600020600101828154811061049457610493610b68565b5b9060005260206000200180546104a990610b36565b80601f01602080910402602001604051908101604052809291908181526020018280546104d590610b36565b80156105225780601f106104f757610100808354040283529160200191610522565b820191906000526020600020905b81548152906001019060200180831161050557829003601f168201915b5050505050905092915050565b80600080858152602001908152602001600020600101838154811061055757610556610b68565b5b90600052602060002001908051906020019061057492919061057a565b50505050565b82805461058690610b36565b90600052602060002090601f0160209004810192826105a857600085556105ef565b82601f106105c157805160ff19168380011785556105ef565b828001600101855582156105ef579182015b828111156105ee5782518255916020019190600101906105d3565b5b5090506105fc9190610600565b5090565b5b80821115610619576000816000905550600101610601565b5090565b6000604051905090565b600080fd5b600080fd5b6000819050919050565b61064481610631565b811461064f57600080fd5b50565b6000813590506106618161063b565b92915050565b60006020828403121561067d5761067c610627565b5b600061068b84828501610652565b91505092915050565b61069d81610631565b82525050565b60006020820190506106b86000830184610694565b92915050565b600080fd5b600080fd5b6000601f19601f8301169050919050565b7f4e487b7100000000000000000000000000000000000000000000000000000000600052604160045260246000fd5b610711826106c8565b810181811067ffffffffffffffff821117156107305761072f6106d9565b5b80604052505050565b600061074361061d565b905061074f8282610708565b919050565b600067ffffffffffffffff82111561076f5761076e6106d9565b5b610778826106c8565b9050602081019050919050565b82818337600083830152505050565b60006107a76107a284610754565b610739565b9050828152602081018484840111156107c3576107c26106c3565b5b6107ce848285610785565b509392505050565b600082601f8301126107eb576107ea6106be565b5b81356107fb848260208601610794565b91505092915050565b600080600080600060a086880312156108205761081f610627565b5b600061082e88828901610652565b955050602086013567ffffffffffffffff81111561084f5761084e61062c565b5b61085b888289016107d6565b945050604086013567ffffffffffffffff81111561087c5761087b61062c565b5b610888888289016107d6565b935050606086013567ffffffffffffffff8111156108a9576108a861062c565b5b6108b5888289016107d6565b925050608086013567ffffffffffffffff8111156108d6576108d561062c565b5b6108e2888289016107d6565b9150509295509295909350565b600081519050919050565b600082825260208201905092915050565b60005b8381101561092957808201518184015260208101905061090e565b83811115610938576000848401525b50505050565b6000610949826108ef565b61095381856108fa565b935061096381856020860161090b565b61096c816106c8565b840191505092915050565b60006020820190508181036000830152610991818461093e565b905092915050565b600080604083850312156109b0576109af610627565b5b60006109be85828601610652565b92505060206109cf85828601610652565b9150509250929050565b6000806000606084860312156109f2576109f1610627565b5b6000610a0086828701610652565b9350506020610a1186828701610652565b925050604084013567ffffffffffffffff811115610a3257610a3161062c565b5b610a3e868287016107d6565b9150509250925092565b600081905092915050565b6000610a5e826108ef565b610a688185610a48565b9350610a7881856020860161090b565b80840191505092915050565b6000610a908284610a53565b915081905092915050565b7f3000000000000000000000000000000000000000000000000000000000000000600082015250565b6000610ad16001836108fa565b9150610adc82610a9b565b602082019050919050565b60006020820190508181036000830152610b0081610ac4565b9050919050565b7f4e487b7100000000000000000000000000000000000000000000000000000000600052602260045260246000fd5b60006002820490506001821680610b4e57607f821691505b60208210811415610b6257610b61610b07565b5b50919050565b7f4e487b7100000000000000000000000000000000000000000000000000000000600052603260045260246000fdfea2646970667358221220e0e48881f85fa1b079faef618b03f895585922a2ea361a86b49e5ad1529ebadc64736f6c634300080b0033",
  "immutableReferences": {},
  "source": "pragma solidity <0.9.0;\ncontract Sairam\n {\n    event Created(string msg);\n    mapping(uint256 => User) users;\n    string private message = \"Swami\";\n    struct User \n    {\n        uint256 id;\n        string[] data;\n        bool isDone;\n    }\n    function newUser(uint256 _id,string memory _modid, string memory _userid, string memory _sign,string memory _proof) public \n    {\n\n        message=\"NotDone\";\n        if(keccak256(abi.encodePacked(_sign))==keccak256(abi.encodePacked(_proof)))\n        {\n            if(users[_id].isDone==false)\n            {\n\n                users[_id].id = _id;\n                users[_id].isDone=true;\n                users[_id].data.push(_modid);\n                users[_id].data.push(_userid);\n                message=\"Done\";\n                emit Created(\"0\");//For Created\n            }\n        }\n\n    }\n    function saySairam() public pure returns (string memory)\n    {\n        return(\"Sairam\");\n    }\n    function setData(uint256 _id, uint256 _index, string memory _newData) public \n    {\n        users[_id].data[_index] = _newData;\n    }\n    function getUserData(uint256 _id, uint256 _dataIndex) public view returns (string memory)\n    {\n        return users[_id].data[_dataIndex];\n    }\n\n    function getDataSize(uint256 _id) public view returns (uint256) \n    {\n        return users[_id].data.length;        \n    }\n\n    function getMessage() public view returns(string memory)\n    {\n        return(message);\n    }\n}",
  "sourcePath": "/home/s/Desktop/sai/truffle/sairam/contracts/Sairam.sol",
  "compiler": {
    "name": "solc",
    "version": "0.8.11+commit.d7f03943.Emscripten.clang"
  },
  "schemaVersion": "3.4.5",
  "updatedAt": "2022-03-31T14:33:54.469Z",
  "networkType": "ethereum",
  "devdoc": {
    "kind": "dev",
    "methods": {},
    "version": 1
  },
  "userdoc": {
    "kind": "user",
    "methods": {},
    "version": 1
  }
}